:020000040800F2
:1000000000180020FD030008410300084D0300080C
:1000100053030008590300085F03000800000000B4
:100020000000000000000000000000006503000860
:1000300071030008000000007D0300088903000828
:10004000450400084504000845040008450400086C
:10005000450400084504000845040008450400085C
:10006000450400084504000845040008450400084C
:10007000450400084504000845040008450400083C
:10008000450400084504000845040008450400082C
:10009000450400084504000845040008450400081C
:1000A000450400084504000845040008450400080C
:1000B000450400084504000800000000450400084D
:1000C000450400080000000000000000450400088E
:1000D000000000004504000845040008000000007E
:1000E000450400084504000845040008000000001D
:1000F0000000000000000000000000000000000000
:0C01000000000000000000005FF808F1A3
:10010C0010B5054C237833B9044B13B10448AFF345
:10011C0000800123237010BD20000020000000008F
:10012C001812000808B5034B1BB103490348AFF381
:10013C00008008BD000000002400002018120008F8
:10014C0080B582B000AF00F079F900F02DF800F026
:10015C0067F800237B601AE00F4A7B6813441A7817
:10016C000E4BDA6000233B600BE00D4A3B681344F6
:10017C001A780C4BDA60FA2000F0C2F93B680133B4
:10018C003B603B68092BF0DD7B6801337B607B684F
:10019C00052BE1DDDDE700BF0C000020000C014069
:1001AC00000000200008014080B590B000AF07F1BE
:1001BC00180328220021184601F020F83B1D0022CC
:1001CC001A605A609A60DA601A610223BB610123DB
:1001DC00BB621023FB6200237B6307F118031846F4
:1001EC0000F0FEFB0346002B01D000F06BF80F2350
:1001FC007B600023BB600023FB6000233B6100237A
:10020C007B613B1D0021184600F06AFE0346002B63
:10021C0001D000F057F800BF4037BD4680BD00004C
:10022C0080B586B000AF07F1080300221A605A604F
:10023C009A60DA60204B9B691F4A43F00403936178
:10024C001D4B9B6903F004037B607B681A4B9B6915
:10025C00194A43F008039361174B9B6903F0080399
:10026C003B603B680022FE21144800F0A1FB0022F9
:10027C00FE21134800F09CFBFE23BB600123FB60B6
:10028C0000233B6102237B6107F1080319460B48ED
:10029C0000F03CFAFE23BB600123FB6000233B61B2
:1002AC0002237B6107F108031946054800F02EFA7A
:1002BC0000BF1837BD4680BD001002400008014049
:1002CC00000C014080B400AF00BFBD4680BC70473D
:1002DC0080B485B000AF154B9B69144A43F0010301
:1002EC009361124B9B6903F00103BB60BB680F4B1E
:1002FC00DB690E4A43F08053D3610C4BDB6903F08E
:10030C0080537B607B680A4B5B68FB60FB6823F067
:10031C00E063FB60FB6843F08063FB60044AFB68AE
:10032C00536000BF1437BD4680BC704700100240BC
:10033C000000014080B400AF00BFBD4680BC7047D8
:10034C0080B400AFFEE780B400AFFEE780B400AF2E
:10035C00FEE780B400AFFEE780B400AF00BFBD463F
:10036C0080BC704780B400AF00BFBD4680BC7047F6
:10037C0080B400AF00BFBD4680BC704780B500AFF5
:10038C0000F0A2F800BF80BD80B400AF154B1B6815
:10039C00144A43F001031360124B5A681149124B73
:1003AC0013404B600F4B1B680E4A23F0847323F4ED
:1003BC00803313600B4B1B680A4A23F480231360B1
:1003CC00084B5B68074A23F4FE035360054B4FF45C
:1003DC001F029A60054B4FF000629A6000BFBD4649
:1003EC0080BC7047001002400000FFF800ED00E0F8
:1003FC00002103E00B4B5B58435004310A480B4B74
:10040C0042189A42F6D30A4A02E0002342F8043B0F
:10041C00084B9A42F9D3FFF7B7FF00F0CBFEFFF77A
:10042C008FFE70475C1200080000002020000020A6
:10043C002000002040000020FEE7000080B500AF47
:10044C00084B1B68074A43F010031360032000F0AD
:10045C0029F9002000F008F8FFF73AFF00231846AE
:10046C0080BD00BF0020024080B582B000AF786034
:10047C00124B1A68124B1B7819464FF47A73B3FB64
:10048C00F1F3B2FBF3F3184600F033F90346002BFB
:10049C0001D001230EE07B680F2B0AD8002279686B
:1004AC004FF0FF3000F009F9064A7B681360002317
:1004BC0000E0012318460837BD4680BD140000201B
:1004CC001C0000201800002080B400AF054B1B78E6
:1004DC001A46054B1B681344034A136000BFBD4604
:1004EC0080BC70471C0000203C00002080B400AF92
:1004FC00024B1B681846BD4680BC70473C00002070
:10050C0080B584B000AF7860FFF7F0FFB8607B680F
:10051C00FB60FB68B3F1FF3F05D0094B1B781A4613
:10052C00FB681344FB6000BFFFF7E0FF0246BB68AB
:10053C00D31AFA689A42F7D800BF1037BD4680BD6F
:10054C001C00002080B485B000AF78607B6803F09D
:10055C000703FB600C4BDB68BB60BA684FF6FF030C
:10056C001340BB60FB681A02BB68134343F0BF63C4
:10057C0043F40033BB60044ABB68D36000BF14373C
:10058C00BD4680BC704700BF00ED00E080B400AFFA
:10059C00044BDB681B0A03F007031846BD4680BCFE
:1005AC00704700BF00ED00E080B483B000AF03469D
:1005BC003960FB7197F90730002B0ADB3B68DAB224
:1005CC000C4997F907301201D2B20B4483F800237F
:1005DC000AE03B68DAB20849FB7903F00F03043BED
:1005EC001201D2B20B441A7600BF0C37BD4680BC48
:1005FC00704700BF00E100E000ED00E080B489B07E
:10060C0000AFF860B9607A60FB6803F00703FB6128
:10061C00FB69C3F10703042B28BF0423BB61FB69EF
:10062C000433062B02D9FB69033B00E000237B61FA
:10063C004FF0FF32BB6902FA03F3DA43BB681A408E
:10064C007B699A404FF0FF317B6901FA03F3D94380
:10065C007B680B40134318462437BD4680BC70475B
:10066C0080B582B000AF78607B68013BB3F1807FCE
:10067C0001D301230FE00A4A7B68013B53600F2131
:10068C004FF0FF30FFF790FF054B00229A60044BB0
:10069C0007221A60002318460837BD4680BD00BFEC
:1006AC0010E000E080B582B000AF78607868FFF7AA
:1006BC0049FF00BF0837BD4680BD80B586B000AF8E
:1006CC000346B9607A60FB7300237B61FFF75EFF22
:1006DC0078617A68B9687869FFF790FF024697F9F4
:1006EC000F3011461846FFF75FFF00BF1837BD46A5
:1006FC0080BD80B582B000AF78607868FFF7B0FF3E
:10070C00034618460837BD4680BD000080B48BB048
:10071C0000AF7860396000237B6200233B6221E1EB
:10072C0001227B6A02FA03F3FB613B681B68FA69DE
:10073C001340BB61BA69FB699A4240F010813B6877
:10074C005B68122B34D0122B0DD8022B2BD0022B22
:10075C0004D8002B31D0012B1CD048E0032B43D004
:10076C00112B1BD043E0864A934226D0844A9342F5
:10077C0006D8844A934220D0834A93421DD036E057
:10078C00824A934219D0824A934216D0814A9342AC
:10079C0013D02CE03B68DB683B6228E03B68DB68ED
:1007AC0004333B6223E03B68DB6808333B621EE0AA
:1007BC003B68DB680C333B6219E03B689B68002BA1
:1007CC0002D104233B6212E03B689B68012B05D1EC
:1007DC0008233B627B68FA691A6108E008233B62D4
:1007EC007B68FA695A6102E000233B6200BFBB6977
:1007FC00FF2B01D87B6801E07B6804337B61BB690C
:10080C00FF2B02D87B6A9B0002E07B6A083B9B00B3
:10081C003B617B691A680F213B6901FA03F3DB43E7
:10082C001A40396A3B6901FA03F31A437B691A606F
:10083C003B685B6803F08053002B00F09080564BB4
:10084C009B69554A43F001039361534B9B6903F039
:10085C000103BB60BB68514A7B6A9B08023352F8A8
:10086C002330FB607B6A03F003039B000F2202FA28
:10087C0003F3DB43FA681340FB607B68484A9342FE
:10088C000DD07B68474A934207D07B68464A934217
:10089C0001D1022304E0032302E0012300E0002342
:1008AC007A6A02F0030292009340FA681343FB60E9
:1008BC003A497B6A9B080233FA6841F823203B686B
:1008CC005B6803F48033002B06D0384B1A68374929
:1008DC00BB6913430B6006E0344B1A68BB69DB43FE
:1008EC00324913400B603B685B6803F40033002B08
:1008FC0006D02E4B5A682D49BB6913434B6006E05A
:10090C002A4B5A68BB69DB43284913404B603B6850
:10091C005B6803F48013002B06D0244B9A682349A0
:10092C00BB6913438B6006E0204B9A68BB69DB43C1
:10093C001E4913408B603B685B6803F40013002B6B
:10094C0006D01A4BDA681949BB691343CB6006E031
:10095C00164BDA68BB69DB4314491340CB607B6AE6
:10096C0001337B623B681A687B6A22FA03F3002B23
:10097C007FF4D6AE00BF2C37BD4680BC704700BF9D
:10098C0000002110000011100000121000003110A6
:10099C000000321000002210001002400000014044
:1009AC0000080140000C014000100140000401400F
:1009BC0080B483B000AF78600B467B8013467B70AD
:1009CC007B78002B03D07A887B681A6103E07B88E4
:1009DC001A047B681A6100BF0C37BD4680BC704797
:1009EC0080B586B000AF78607B68002B01D1012305
:1009FC006CE27B681B6803F00103002B00F087801E
:100A0C00924B5B6803F00C03042B0CD08F4B5B6890
:100A1C0003F00C03082B12D18C4B5B6803F480336E
:100A2C00B3F5803F0BD1894B1B6803F40033002BCB
:100A3C006CD07B685B68002B68D1012346E27B6835
:100A4C005B68B3F5803F06D1804B1B687F4A43F44B
:100A5C00803313602EE07B685B68002B0CD17B4BE2
:100A6C001B687A4A23F480331360784B1B68774AEF
:100A7C0023F4802313601DE07B685B68B3F5A02F23
:100A8C000CD1724B1B68714A43F4802313606F4B7B
:100A9C001B686E4A43F4803313600BE06B4B1B688E
:100AAC006A4A23F480331360684B1B68674A23F44B
:100ABC00802313607B685B68002B13D0FFF716FD57
:100ACC00386108E0FFF712FD02463B69D31A642B2C
:100ADC0001D90323FAE15D4B1B6803F40033002BAF
:100AEC00F0D014E0FFF702FD386108E0FFF7FEFCE0
:100AFC0002463B69D31A642B01D90323E6E1534B1D
:100B0C001B6803F40033002BF0D100E000BF7B68BE
:100B1C001B6803F00203002B63D04C4B5B6803F0A3
:100B2C000C03002B0BD0494B5B6803F00C03082B18
:100B3C001CD1464B5B6803F48033002B16D1434B1E
:100B4C001B6803F00203002B05D07B681B69012B8B
:100B5C0001D00123BAE13D4B1B6823F0F8027B68FE
:100B6C005B69DB00394913430B603AE07B681B6916
:100B7C00002B20D0364B01221A60FFF7B7FC3861EE
:100B8C0008E0FFF7B3FC02463B69D31A022B01D9EC
:100B9C0003239BE12D4B1B6803F00203002BF0D0C9
:100BAC002A4B1B6823F0F8027B685B69DB00274942
:100BBC0013430B6015E0264B00221A60FFF796FCDE
:100BCC00386108E0FFF792FC02463B69D31A022B0E
:100BDC0001D903237AE11D4B1B6803F00203002BA0
:100BEC00F0D17B681B6803F00803002B3AD07B68BC
:100BFC009B69002B19D0174B01221A60FFF776FC6A
:100C0C00386108E0FFF772FC02463B69D31A022BED
:100C1C0001D903235AE10D4B5B6A03F00203002B4D
:100C2C00F0D0012000F0A8FA1CE00A4B00221A6058
:100C3C00FFF75CFC38610FE0FFF758FC02463B699C
:100C4C00D31A022B08D9032340E100BF0010024045
:100C5C0000004242800442429E4B5B6A03F0020356
:100C6C00002BE9D17B681B6803F00403002B00F018
:100C7C00A6800023FB75974BDB6903F08053002B98
:100C8C000DD1944BDB69934A43F08053D361914B64
:100C9C00DB6903F08053BB60BB680123FB758E4B93
:100CAC001B6803F48073002B18D18B4B1B688A4A8A
:100CBC0043F480731360FFF719FC386108E0FFF709
:100CCC0015FC02463B69D31A642B01D90323FDE0C2
:100CDC00814B1B6803F48073002BF0D07B68DB68BE
:100CEC00012B06D17B4B1B6A7A4A43F0010313623A
:100CFC002DE07B68DB68002B0CD1764B1B6A754AA8
:100D0C0023F001031362734B1B6A724A23F0040332
:100D1C0013621CE07B68DB68052B0CD16D4B1B6AE6
:100D2C006C4A43F0040313626A4B1B6A694A43F032
:100D3C00010313620BE0674B1B6A664A23F0010345
:100D4C001362644B1B6A634A23F0040313627B68CF
:100D5C00DB68002B15D0FFF7C9FB38610AE0FFF701
:100D6C00C5FB02463B69D31A41F28832934201D942
:100D7C000323ABE0574B1B6A03F00203002BEED0AE
:100D8C0014E0FFF7B3FB38610AE0FFF7AFFB024654
:100D9C003B69D31A41F28832934201D9032395E07F
:100DAC004C4B1B6A03F00203002BEED1FB7D012B95
:100DBC0005D1484BDB69474A23F08053D3617B68EC
:100DCC00DB69002B00F08180424B5B6803F00C0365
:100DDC00082B61D07B68DB69022B46D13F4B00228C
:100DEC001A60FFF783FB386108E0FFF77FFB0246D0
:100DFC003B69D31A022B01D9032367E0354B1B68DF
:100E0C0003F00073002BF0D17B681B6AB3F5803FB5
:100E1C0008D1304B5B6823F400327B689B682D490A
:100E2C0013434B602B4B5B6823F474127B68196A79
:100E3C007B685B6A0B43274913434B60274B0122AA
:100E4C001A60FFF753FB386108E0FFF74FFB0246CF
:100E5C003B69D31A022B01D9032337E01D4B1B68C6
:100E6C0003F00073002BF0D02FE01C4B00221A6013
:100E7C00FFF73CFB386108E0FFF738FB02463B69A3
:100E8C00D31A022B01D9032320E0124B1B6803F069
:100E9C000073002BF0D118E07B68DB69012B01D1CA
:100EAC00012313E00B4B5B68FB60FB6803F480329F
:100EBC007B681B6A9A4206D1FB6803F470127B684C
:100ECC005B6A9A4201D0012300E0002318461837D0
:100EDC00BD4680BD001002400070004060004242E0
:100EEC0080B584B000AF786039607B68002B01D18D
:100EFC000123D0E06A4B1B6803F007033A689A425F
:100F0C0010D9674B1B6823F0070265493B681343F4
:100F1C000B60634B1B6803F007033A689A4201D0DD
:100F2C000123B8E07B681B6803F00203002B20D080
:100F3C007B681B6803F00403002B05D0594B5B68DE
:100F4C00584A43F4E06353607B681B6803F0080362
:100F5C00002B05D0534B5B68524A43F460535360EB
:100F6C00504B5B6823F0F0027B689B684D49134340
:100F7C004B607B681B6803F00103002B40D07B683F
:100F8C005B68012B07D1474B1B6803F40033002B24
:100F9C0015D101237FE07B685B68022B07D1414BA5
:100FAC001B6803F00073002B09D1012373E03D4B48
:100FBC001B6803F00203002B01D101236BE0394BBA
:100FCC005B6823F003027B685B68364913434B6014
:100FDC00FFF78CFAF8600AE0FFF788FA0246FB6824
:100FEC00D31A41F28832934201D9032353E02D4B9B
:100FFC005B6803F00C027B685B689B009A42EBD148
:10100C00274B1B6803F007033A689A4210D2244B13
:10101C001B6823F0070222493B6813430B60204BEB
:10102C001B6803F007033A689A4201D0012332E0AF
:10103C007B681B6803F00403002B08D0194B5B681A
:10104C0023F4E0627B68DB68164913434B607B68D2
:10105C001B6803F00803002B09D0124B5B6823F4C8
:10106C0060527B681B69DB000E4913434B6000F038
:10107C0021F801460B4B5B681B0903F00F030A4A6E
:10108C00D35C21FA03F3094A1360094B1B68184619
:10109C00FFF7EAF9002318461037BD4680BD00BFA4
:1010AC0000200240001002404412000814000020EE
:1010BC001800002090B48AB000AF2A4B3C1D0FCB17
:1010CC0084E80F00284B1B883B800023FB61002326
:1010DC00BB6100237B6200237B6100233B62234BBB
:1010EC005B68FB61FB6903F00C03042B02D0082B3B
:1010FC0003D02DE01E4B3B622DE0FB699B0C03F0F3
:10110C000F0307F12802134413F8243C7B61FB699D
:10111C0003F48033002B13D0144B5B685B0C03F08F
:10112C00010307F12802134413F8283CBB617B69C7
:10113C000F4A02FB03F2BB69B2FBF3F37B6204E0E0
:10114C007B690C4A02FB03F37B627B6A3B6202E025
:10115C00074B3B6200BF3B6A18462837BD4690BC24
:10116C00704700BF30120008401200080010024007
:10117C0000127A0000093D0080B485B000AF7860A1
:10118C000A4B1B680A4AA2FB03235B0A7A6802FB20
:10119C0003F3FB6000BFFB685A1EFA60002BF9D109
:1011AC0000BF1437BD4680BC704700BF1400002040
:1011BC00D34D621070B500250C4E0D4CA41BA41021
:1011CC00A54209D100F022F800250A4E0A4CA41BB6
:1011DC00A410A54205D170BD56F8253098470135AD
:1011EC00EEE756F8253098470135F2E7541200081F
:1011FC005412000854120008581200080346024406
:10120C00934200D1704703F8011BF9E7F8B500BF12
:10121C00F8BC08BC9E467047F8B500BFF8BC08BCCB
:04122C009E46704723
:1012300002030405060708090A0B0C0D0E0F101017
:101240000102000000000000000000000102030491
:04125000060708097C
:04125400310100085C
:041258000D0100087C
:10125C00029F250D9949401F00090000029F250D92
:10126C00994940000024F400100000000100000027
:04000005080003FDEF
:00000001FF
